{
  "contractName": "FundingHub",
  "abi": [
    {
      "constant": true,
      "inputs": [
        {
          "name": "",
          "type": "uint256"
        }
      ],
      "name": "contributors",
      "outputs": [
        {
          "name": "from",
          "type": "string"
        },
        {
          "name": "to",
          "type": "string"
        },
        {
          "name": "amount",
          "type": "uint256"
        }
      ],
      "payable": false,
      "stateMutability": "view",
      "type": "function"
    },
    {
      "constant": true,
      "inputs": [
        {
          "name": "",
          "type": "address"
        }
      ],
      "name": "projects",
      "outputs": [
        {
          "name": "addr",
          "type": "address"
        },
        {
          "name": "name",
          "type": "string"
        },
        {
          "name": "url",
          "type": "string"
        },
        {
          "name": "goal",
          "type": "uint256"
        },
        {
          "name": "funds",
          "type": "uint256"
        },
        {
          "name": "initialized",
          "type": "bool"
        },
        {
          "name": "creator",
          "type": "string"
        }
      ],
      "payable": false,
      "stateMutability": "view",
      "type": "function"
    },
    {
      "constant": true,
      "inputs": [
        {
          "name": "",
          "type": "uint256"
        }
      ],
      "name": "projectAddresses",
      "outputs": [
        {
          "name": "",
          "type": "address"
        }
      ],
      "payable": false,
      "stateMutability": "view",
      "type": "function"
    },
    {
      "constant": true,
      "inputs": [],
      "name": "numberOfProjects",
      "outputs": [
        {
          "name": "",
          "type": "uint256"
        }
      ],
      "payable": false,
      "stateMutability": "view",
      "type": "function"
    },
    {
      "inputs": [
        {
          "name": "_minimumEntryFee",
          "type": "uint256"
        }
      ],
      "payable": false,
      "stateMutability": "nonpayable",
      "type": "constructor"
    },
    {
      "anonymous": false,
      "inputs": [
        {
          "indexed": false,
          "name": "addr",
          "type": "address"
        },
        {
          "indexed": false,
          "name": "name",
          "type": "string"
        },
        {
          "indexed": false,
          "name": "url",
          "type": "string"
        },
        {
          "indexed": false,
          "name": "goal",
          "type": "uint256"
        },
        {
          "indexed": false,
          "name": "initialized",
          "type": "bool"
        },
        {
          "indexed": false,
          "name": "creator",
          "type": "string"
        }
      ],
      "name": "ProjectSubmitted",
      "type": "event"
    },
    {
      "anonymous": false,
      "inputs": [
        {
          "indexed": false,
          "name": "addr",
          "type": "address"
        },
        {
          "indexed": false,
          "name": "amount",
          "type": "uint256"
        }
      ],
      "name": "ProjectSupported",
      "type": "event"
    },
    {
      "anonymous": false,
      "inputs": [
        {
          "indexed": false,
          "name": "projectcontrib",
          "type": "string[]"
        }
      ],
      "name": "Contrib",
      "type": "event"
    },
    {
      "constant": false,
      "inputs": [
        {
          "name": "name",
          "type": "string"
        },
        {
          "name": "url",
          "type": "string"
        },
        {
          "name": "goal",
          "type": "uint256"
        },
        {
          "name": "username",
          "type": "string"
        }
      ],
      "name": "submitProject",
      "outputs": [
        {
          "name": "success",
          "type": "bool"
        }
      ],
      "payable": true,
      "stateMutability": "payable",
      "type": "function"
    },
    {
      "constant": true,
      "inputs": [
        {
          "name": "x",
          "type": "address"
        }
      ],
      "name": "toString",
      "outputs": [
        {
          "name": "",
          "type": "string"
        }
      ],
      "payable": false,
      "stateMutability": "pure",
      "type": "function"
    },
    {
      "constant": false,
      "inputs": [
        {
          "name": "addr",
          "type": "address"
        }
      ],
      "name": "supportProject",
      "outputs": [
        {
          "name": "success",
          "type": "bool"
        }
      ],
      "payable": true,
      "stateMutability": "payable",
      "type": "function"
    },
    {
      "constant": true,
      "inputs": [
        {
          "name": "addr",
          "type": "address"
        }
      ],
      "name": "getProjectInfo",
      "outputs": [
        {
          "name": "",
          "type": "string"
        },
        {
          "name": "",
          "type": "string"
        },
        {
          "name": "",
          "type": "uint256"
        },
        {
          "name": "",
          "type": "uint256"
        },
        {
          "name": "",
          "type": "string"
        },
        {
          "name": "",
          "type": "address"
        }
      ],
      "payable": false,
      "stateMutability": "view",
      "type": "function"
    },
    {
      "constant": true,
      "inputs": [
        {
          "name": "a",
          "type": "string"
        },
        {
          "name": "b",
          "type": "string"
        }
      ],
      "name": "compareStrings",
      "outputs": [
        {
          "name": "",
          "type": "bool"
        }
      ],
      "payable": false,
      "stateMutability": "pure",
      "type": "function"
    },
    {
      "constant": true,
      "inputs": [
        {
          "name": "username",
          "type": "string"
        }
      ],
      "name": "getProjectByUser",
      "outputs": [
        {
          "name": "",
          "type": "address[]"
        }
      ],
      "payable": false,
      "stateMutability": "view",
      "type": "function"
    },
    {
      "constant": true,
      "inputs": [
        {
          "name": "username",
          "type": "string"
        }
      ],
      "name": "fundsCollectedByUser",
      "outputs": [
        {
          "name": "",
          "type": "uint256"
        }
      ],
      "payable": false,
      "stateMutability": "view",
      "type": "function"
    },
    {
      "constant": true,
      "inputs": [
        {
          "name": "projaddr",
          "type": "string"
        }
      ],
      "name": "getContributors",
      "outputs": [
        {
          "name": "",
          "type": "string[]"
        }
      ],
      "payable": false,
      "stateMutability": "view",
      "type": "function"
    }
  ],
  "bytecode": "0x60806040523480156200001157600080fd5b50604051602080620027f8833981018060405262000033919081019062000057565b80600081905550506200008d565b60006200004f825162000083565b905092915050565b6000602082840312156200006a57600080fd5b60006200007a8482850162000041565b91505092915050565b6000819050919050565b61275b806200009d6000396000f3006080604052600436106100ba576000357c0100000000000000000000000000000000000000000000000000000000900463ffffffff1680631b97d2f1146100bf5780633cb5d100146100fc57806347ee45b91461013b57806356ca623e1461017d578063840e78fd146101ba578063aaa545d0146101fd578063bb1e7f651461023a578063bed34bba14610277578063cc13fd3b146102b4578063cf5e9747146102f1578063db5e4c7f14610321578063ef9716c41461034c575b600080fd5b3480156100cb57600080fd5b506100e660048036036100e19190810190611e8a565b61037c565b6040516100f391906123be565b60405180910390f35b34801561010857600080fd5b50610123600480360361011e9190810190611fe2565b610590565b604051610132939291906124b5565b60405180910390f35b34801561014757600080fd5b50610162600480360361015d9190810190611e61565b6106f9565b6040516101749695949392919061243f565b60405180910390f35b34801561018957600080fd5b506101a4600480360361019f9190810190611e61565b6109bd565b6040516101b1919061241d565b60405180910390f35b3480156101c657600080fd5b506101e160048036036101dc9190810190611e61565b610d6d565b6040516101f49796959493929190612311565b60405180910390f35b34801561020957600080fd5b50610224600480360361021f9190810190611e8a565b610fa4565b60405161023191906123e0565b60405180910390f35b34801561024657600080fd5b50610261600480360361025c9190810190611e8a565b611230565b60405161026e919061259a565b60405180910390f35b34801561028357600080fd5b5061029e60048036036102999190810190611ecb565b611404565b6040516102ab9190612402565b60405180910390f35b3480156102c057600080fd5b506102db60048036036102d69190810190611fe2565b6115b5565b6040516102e89190612280565b60405180910390f35b61030b60048036036103069190810190611e61565b6115f3565b6040516103189190612402565b60405180910390f35b34801561032d57600080fd5b506103366118cb565b604051610343919061259a565b60405180910390f35b61036660048036036103619190810190611f37565b6118d1565b6040516103739190612402565b60405180910390f35b60608060008060056040519080825280602002602001820160405280156103b25781602001602082028038833980820191505090505b50925060009150600090505b600380549050811015610585576104e8600160006003848154811015156103e157fe5b9060005260206000200160009054906101000a900473ffffffffffffffffffffffffffffffffffffffff1673ffffffffffffffffffffffffffffffffffffffff1673ffffffffffffffffffffffffffffffffffffffff1681526020019081526020016000206006018054600181600116156101000203166002900480601f0160208091040260200160405190810160405280929190818152602001828054600181600116156101000203166002900480156104dd5780601f106104b2576101008083540402835291602001916104dd565b820191906000526020600020905b8154815290600101906020018083116104c057829003601f168201915b505050505086611404565b15610578576003818154811015156104fc57fe5b9060005260206000200160009054906101000a900473ffffffffffffffffffffffffffffffffffffffff16838380600101945081518110151561053b57fe5b9060200190602002019073ffffffffffffffffffffffffffffffffffffffff16908173ffffffffffffffffffffffffffffffffffffffff16815250505b80806001019150506103be565b829350505050919050565b60028181548110151561059f57fe5b9060005260206000209060030201600091509050806000018054600181600116156101000203166002900480601f01602080910402602001604051908101604052809291908181526020018280546001816001161561010002031660029004801561064b5780601f106106205761010080835404028352916020019161064b565b820191906000526020600020905b81548152906001019060200180831161062e57829003601f168201915b505050505090806001018054600181600116156101000203166002900480601f0160208091040260200160405190810160405280929190818152602001828054600181600116156101000203166002900480156106e95780601f106106be576101008083540402835291602001916106e9565b820191906000526020600020905b8154815290600101906020018083116106cc57829003601f168201915b5050505050908060020154905083565b6060806000806060600080600160008973ffffffffffffffffffffffffffffffffffffffff1673ffffffffffffffffffffffffffffffffffffffff16815260200190815260200160002090508060050160009054906101000a900460ff161515610798576040517f08c379a000000000000000000000000000000000000000000000000000000000815260040161078f906124fa565b60405180910390fd5b806001018160020182600301548360040154846006018560000160009054906101000a900473ffffffffffffffffffffffffffffffffffffffff16858054600181600116156101000203166002900480601f0160208091040260200160405190810160405280929190818152602001828054600181600116156101000203166002900480156108685780601f1061083d57610100808354040283529160200191610868565b820191906000526020600020905b81548152906001019060200180831161084b57829003601f168201915b50505050509550848054600181600116156101000203166002900480601f0160208091040260200160405190810160405280929190818152602001828054600181600116156101000203166002900480156109045780601f106108d957610100808354040283529160200191610904565b820191906000526020600020905b8154815290600101906020018083116108e757829003601f168201915b50505050509450818054600181600116156101000203166002900480601f0160208091040260200160405190810160405280929190818152602001828054600181600116156101000203166002900480156109a05780601f10610975576101008083540402835291602001916109a0565b820191906000526020600020905b81548152906001019060200180831161098357829003601f168201915b505050505091509650965096509650965096505091939550919395565b6060600060608060008573ffffffffffffffffffffffffffffffffffffffff1660010293506040805190810160405280601081526020017f30313233343536373839616263646566000000000000000000000000000000008152509250602a6040519080825280601f01601f191660200182016040528015610a4e5781602001602082028038833980820191505090505b5091507f3000000000000000000000000000000000000000000000000000000000000000826000815181101515610a8157fe5b9060200101907effffffffffffffffffffffffffffffffffffffffffffffffffffffffffffff1916908160001a9053507f7800000000000000000000000000000000000000000000000000000000000000826001815181101515610ae157fe5b9060200101907effffffffffffffffffffffffffffffffffffffffffffffffffffffffffffff1916908160001a905350600090505b6014811015610d615782600485600c8401602081101515610b3357fe5b1a7f0100000000000000000000000000000000000000000000000000000000000000027effffffffffffffffffffffffffffffffffffffffffffffffffffffffffffff19169060020a90047f01000000000000000000000000000000000000000000000000000000000000009004815181101515610bad57fe5b9060200101517f010000000000000000000000000000000000000000000000000000000000000090047f0100000000000000000000000000000000000000000000000000000000000000028260028302600201815181101515610c0c57fe5b9060200101907effffffffffffffffffffffffffffffffffffffffffffffffffffffffffffff1916908160001a90535082600f7f01000000000000000000000000000000000000000000000000000000000000000285600c8401602081101515610c7257fe5b1a7f010000000000000000000000000000000000000000000000000000000000000002167f01000000000000000000000000000000000000000000000000000000000000009004815181101515610cc557fe5b9060200101517f010000000000000000000000000000000000000000000000000000000000000090047f0100000000000000000000000000000000000000000000000000000000000000028260028302600301815181101515610d2457fe5b9060200101907effffffffffffffffffffffffffffffffffffffffffffffffffffffffffffff1916908160001a9053508080600101915050610b16565b81945050505050919050565b60016020528060005260406000206000915090508060000160009054906101000a900473ffffffffffffffffffffffffffffffffffffffff1690806001018054600181600116156101000203166002900480601f016020809104026020016040519081016040528092919081815260200182805460018160011615610100020316600290048015610e3f5780601f10610e1457610100808354040283529160200191610e3f565b820191906000526020600020905b815481529060010190602001808311610e2257829003601f168201915b505050505090806002018054600181600116156101000203166002900480601f016020809104026020016040519081016040528092919081815260200182805460018160011615610100020316600290048015610edd5780601f10610eb257610100808354040283529160200191610edd565b820191906000526020600020905b815481529060010190602001808311610ec057829003601f168201915b5050505050908060030154908060040154908060050160009054906101000a900460ff1690806006018054600181600116156101000203166002900480601f016020809104026020016040519081016040528092919081815260200182805460018160011615610100020316600290048015610f9a5780601f10610f6f57610100808354040283529160200191610f9a565b820191906000526020600020905b815481529060010190602001808311610f7d57829003601f168201915b5050505050905087565b606080600080600a604051908082528060200260200182016040528015610fdf57816020015b6060815260200190600190039081610fca5790505b50925060009150600090505b600280549050811015611225576110ba8560028381548110151561100b57fe5b90600052602060002090600302016001018054600181600116156101000203166002900480601f0160208091040260200160405190810160405280929190818152602001828054600181600116156101000203166002900480156110b05780601f10611085576101008083540402835291602001916110b0565b820191906000526020600020905b81548152906001019060200180831161109357829003601f168201915b5050505050611404565b15611218576002818154811015156110ce57fe5b90600052602060002090600302016000016111086002838154811015156110f157fe5b906000526020600020906003020160020154611be7565b60405160200180838054600181600116156101000203166002900480156111665780601f10611144576101008083540402835291820191611166565b820191906000526020600020905b815481529060010190602001808311611152575b5050807f2d0000000000000000000000000000000000000000000000000000000000000081525060010182805190602001908083835b6020831015156111c1578051825260208201915060208101905060208303925061119c565b6001836020036101000a03801982511681845116808217855250505050505090500192505050604051602081830303815290604052838381518110151561120457fe5b906020019060200201819052506001820191505b8080600101915050610feb565b829350505050919050565b6000806000809150600090505b6003805490508110156113fa576113676001600060038481548110151561126057fe5b9060005260206000200160009054906101000a900473ffffffffffffffffffffffffffffffffffffffff1673ffffffffffffffffffffffffffffffffffffffff1673ffffffffffffffffffffffffffffffffffffffff1681526020019081526020016000206006018054600181600116156101000203166002900480601f01602080910402602001604051908101604052809291908181526020018280546001816001161561010002031660029004801561135c5780601f106113315761010080835404028352916020019161135c565b820191906000526020600020905b81548152906001019060200180831161133f57829003601f168201915b505050505085611404565b156113ed576001600060038381548110151561137f57fe5b9060005260206000200160009054906101000a900473ffffffffffffffffffffffffffffffffffffffff1673ffffffffffffffffffffffffffffffffffffffff1673ffffffffffffffffffffffffffffffffffffffff16815260200190815260200160002060040154820191505b808060010191505061123d565b8192505050919050565b6000816040516020018082805190602001908083835b60208310151561143f578051825260208201915060208101905060208303925061141a565b6001836020036101000a0380198251168184511680821785525050505050509050019150506040516020818303038152906040526040518082805190602001908083835b6020831015156114a85780518252602082019150602081019050602083039250611483565b6001836020036101000a038019825116818451168082178552505050505050905001915050604051809103902060001916836040516020018082805190602001908083835b60208310151561151257805182526020820191506020810190506020830392506114ed565b6001836020036101000a0380198251168184511680821785525050505050509050019150506040516020818303038152906040526040518082805190602001908083835b60208310151561157b5780518252602082019150602081019050602083039250611556565b6001836020036101000a03801982511681845116808217855250505050505090500191505060405180910390206000191614905092915050565b6003818154811015156115c457fe5b906000526020600020016000915054906101000a900473ffffffffffffffffffffffffffffffffffffffff1681565b60008034111515611639576040517f08c379a00000000000000000000000000000000000000000000000000000000081526004016116309061257a565b60405180910390fd5b600160008373ffffffffffffffffffffffffffffffffffffffff1673ffffffffffffffffffffffffffffffffffffffff16815260200190815260200160002060050160009054906101000a900460ff1615156116ca576040517f08c379a00000000000000000000000000000000000000000000000000000000081526004016116c19061253a565b60405180910390fd5b34600160008473ffffffffffffffffffffffffffffffffffffffff1673ffffffffffffffffffffffffffffffffffffffff1681526020019081526020016000206004015401600160008473ffffffffffffffffffffffffffffffffffffffff1673ffffffffffffffffffffffffffffffffffffffff1681526020019081526020016000206003015410151561188b5734600160008473ffffffffffffffffffffffffffffffffffffffff1673ffffffffffffffffffffffffffffffffffffffff1681526020019081526020016000206004016000828254019250508190555060026060604051908101604052806117c0336109bd565b81526020016117ce856109bd565b81526020013481525090806001815401808255809150509060018203906000526020600020906003020160009091929091909150600082015181600001908051906020019061181e929190611d3e565b50602082015181600101908051906020019061183b929190611d3e565b50604082015181600201555050507fdaf9d988cff8579fb76d980affd31da41317fddf02e5134b4c00220b2cb2f374823460405161187a929190612395565b60405180910390a1600190506118c6565b6040517f08c379a00000000000000000000000000000000000000000000000000000000081526004016118bd9061251a565b60405180910390fd5b919050565b60045481565b60008054341015611917576040517f08c379a000000000000000000000000000000000000000000000000000000000815260040161190e9061255a565b60405180910390fd5b600160003373ffffffffffffffffffffffffffffffffffffffff1673ffffffffffffffffffffffffffffffffffffffff16815260200190815260200160002060050160009054906101000a900460ff161515611bda5760e0604051908101604052803373ffffffffffffffffffffffffffffffffffffffff1681526020018681526020018581526020018481526020016000815260200160011515815260200183815250600160003373ffffffffffffffffffffffffffffffffffffffff1673ffffffffffffffffffffffffffffffffffffffff16815260200190815260200160002060008201518160000160006101000a81548173ffffffffffffffffffffffffffffffffffffffff021916908373ffffffffffffffffffffffffffffffffffffffff1602179055506020820151816001019080519060200190611a5d929190611d3e565b506040820151816002019080519060200190611a7a929190611d3e565b50606082015181600301556080820151816004015560a08201518160050160006101000a81548160ff02191690831515021790555060c0820151816006019080519060200190611acb929190611d3e565b5090505060033390806001815401808255809150509060018203906000526020600020016000909192909190916101000a81548173ffffffffffffffffffffffffffffffffffffffff021916908373ffffffffffffffffffffffffffffffffffffffff160217905550506003805490506004819055507f48d049a79e7d71940af3089fa6dd6c20fb73d37802ff88b38af5ef82bf3123c833868686600160003373ffffffffffffffffffffffffffffffffffffffff1673ffffffffffffffffffffffffffffffffffffffff16815260200190815260200160002060050160009054906101000a900460ff1687604051611bc99695949392919061229b565b60405180910390a160019050611bdf565b600090505b949350505050565b60606000806060600080861415611c35576040805190810160405280600181526020017f30000000000000000000000000000000000000000000000000000000000000008152509450611d35565b8593505b600084141515611c5f578280600101935050600a84811515611c5757fe5b049350611c39565b826040519080825280601f01601f191660200182016040528015611c925781602001602082028038833980820191505090505b5091506001830390505b600086141515611d3157600a86811515611cb257fe5b066030017f010000000000000000000000000000000000000000000000000000000000000002828280600190039350815181101515611ced57fe5b9060200101907effffffffffffffffffffffffffffffffffffffffffffffffffffffffffffff1916908160001a905350600a86811515611d2957fe5b049550611c9c565b8194505b50505050919050565b828054600181600116156101000203166002900490600052602060002090601f016020900481019282601f10611d7f57805160ff1916838001178555611dad565b82800160010185558215611dad579182015b82811115611dac578251825591602001919060010190611d91565b5b509050611dba9190611dbe565b5090565b611de091905b80821115611ddc576000816000905550600101611dc4565b5090565b90565b6000611def82356126a4565b905092915050565b600082601f8301121515611e0a57600080fd5b8135611e1d611e18826125e2565b6125b5565b91508082526020830160208301858383011115611e3957600080fd5b611e448382846126ce565b50505092915050565b6000611e5982356126c4565b905092915050565b600060208284031215611e7357600080fd5b6000611e8184828501611de3565b91505092915050565b600060208284031215611e9c57600080fd5b600082013567ffffffffffffffff811115611eb657600080fd5b611ec284828501611df7565b91505092915050565b60008060408385031215611ede57600080fd5b600083013567ffffffffffffffff811115611ef857600080fd5b611f0485828601611df7565b925050602083013567ffffffffffffffff811115611f2157600080fd5b611f2d85828601611df7565b9150509250929050565b60008060008060808587031215611f4d57600080fd5b600085013567ffffffffffffffff811115611f6757600080fd5b611f7387828801611df7565b945050602085013567ffffffffffffffff811115611f9057600080fd5b611f9c87828801611df7565b9350506040611fad87828801611e4d565b925050606085013567ffffffffffffffff811115611fca57600080fd5b611fd687828801611df7565b91505092959194509250565b600060208284031215611ff457600080fd5b600061200284828501611e4d565b91505092915050565b6120148161266e565b82525050565b600061202582612628565b8084526020840193506120378361260e565b60005b828110156120695761204d86835161200b565b61205682612654565b915060208601955060018101905061203a565b50849250505092915050565b600061208082612633565b808452602084019350836020820285016120998561261b565b60005b848110156120d25783830388526120b4838351612128565b92506120bf82612661565b915060208801975060018101905061209c565b508196508694505050505092915050565b6120ec8161268e565b82525050565b60006120fd82612649565b8084526121118160208601602086016126dd565b61211a81612710565b602085010191505092915050565b60006121338261263e565b8084526121478160208601602086016126dd565b61215081612710565b602085010191505092915050565b6000601582527f5368697473206e6f7420696e697469616c6973656400000000000000000000006020830152604082019050919050565b6000601882527f457272726f6f6f6f6f6f6f6f6f6f6f6f6f6f6f6f6f6f6f7200000000000000006020830152604082019050919050565b6000600f82527f4e6f7420696e697469616c697a656400000000000000000000000000000000006020830152604082019050919050565b6000601782527f6d696e696d756d456e74727946656520677265617465720000000000000000006020830152604082019050919050565b6000600a82527f76616c7565206c657373000000000000000000000000000000000000000000006020830152604082019050919050565b61227a8161269a565b82525050565b6000602082019050612295600083018461200b565b92915050565b600060c0820190506122b0600083018961200b565b81810360208301526122c281886120f2565b905081810360408301526122d681876120f2565b90506122e56060830186612271565b6122f260808301856120e3565b81810360a083015261230481846120f2565b9050979650505050505050565b600060e082019050612326600083018a61200b565b81810360208301526123388189612128565b9050818103604083015261234c8188612128565b905061235b6060830187612271565b6123686080830186612271565b61237560a08301856120e3565b81810360c08301526123878184612128565b905098975050505050505050565b60006040820190506123aa600083018561200b565b6123b76020830184612271565b9392505050565b600060208201905081810360008301526123d8818461201a565b905092915050565b600060208201905081810360008301526123fa8184612075565b905092915050565b600060208201905061241760008301846120e3565b92915050565b6000602082019050818103600083015261243781846120f2565b905092915050565b600060c082019050818103600083015261245981896120f2565b9050818103602083015261246d81886120f2565b905061247c6040830187612271565b6124896060830186612271565b818103608083015261249b81856120f2565b90506124aa60a083018461200b565b979650505050505050565b600060608201905081810360008301526124cf8186612128565b905081810360208301526124e38185612128565b90506124f26040830184612271565b949350505050565b600060208201905081810360008301526125138161215e565b9050919050565b6000602082019050818103600083015261253381612195565b9050919050565b60006020820190508181036000830152612553816121cc565b9050919050565b6000602082019050818103600083015261257381612203565b9050919050565b600060208201905081810360008301526125938161223a565b9050919050565b60006020820190506125af6000830184612271565b92915050565b6000604051905081810181811067ffffffffffffffff821117156125d857600080fd5b8060405250919050565b600067ffffffffffffffff8211156125f957600080fd5b601f19601f8301169050602081019050919050565b6000602082019050919050565b6000602082019050919050565b600081519050919050565b600081519050919050565b600081519050919050565b600081519050919050565b6000602082019050919050565b6000602082019050919050565b600073ffffffffffffffffffffffffffffffffffffffff82169050919050565b60008115159050919050565b6000819050919050565b600073ffffffffffffffffffffffffffffffffffffffff82169050919050565b6000819050919050565b82818337600083830152505050565b60005b838110156126fb5780820151818401526020810190506126e0565b8381111561270a576000848401525b50505050565b6000601f19601f83011690509190505600a265627a7a723058200247b400d848e0b85a5eeea85e57f5c6e2eebff9ea101971abaa2ccbde4be4d06c6578706572696d656e74616cf50037",
  "source": "pragma solidity >=0.4.21 <0.6.0;\npragma experimental ABIEncoderV2;\n\ncontract FundingHub {\n    uint minimumEntryFee;\n    struct Project {\n        address addr;\n        string name;\n        string url;\n        uint goal;\n        uint funds;\n        bool initialized;\n        string creator;\n    }\n\n    struct Contribution {\n        string from;\n        string to;\n        uint amount;\n    }\n    mapping (address => Project) public projects;\n    Contribution[] public contributors;\n    address[] public projectAddresses;\n    uint public numberOfProjects;\n    event ProjectSubmitted(address addr, string name, string url,uint goal, bool initialized,string creator);\n    event ProjectSupported(address addr, uint amount);\n    event Contrib(string[] projectcontrib);\n\n    constructor(uint  _minimumEntryFee) public {\n        minimumEntryFee = _minimumEntryFee;\n    }\n    function submitProject(string memory name, string memory url,uint goal,string memory username) payable public returns (bool success) {\n\n        if (msg.value < minimumEntryFee) {\n            revert(\"minimumEntryFee greater\");\n        }\n      \n        if (!projects[msg.sender].initialized) {\n            projects[msg.sender] = Project(msg.sender, name, url,goal, 0, true,username);\n            projectAddresses.push(msg.sender);\n            numberOfProjects = projectAddresses.length;\n            emit ProjectSubmitted(msg.sender, name, url,goal, projects[msg.sender].initialized,username);\n            return true;\n        }\n        return false;\n    }\n\n    function toString(address x) public pure returns (string memory)\n    {\n       bytes32 value = bytes32(uint256(x));\n    bytes memory alphabet = \"0123456789abcdef\";\n\n    bytes memory str = new bytes(42);\n    str[0] = '0';\n    str[1] = 'x';\n    for (uint i = 0; i < 20; i++) {\n        str[2+i*2] = alphabet[uint(value[i + 12] >> 4)];\n        str[3+i*2] = alphabet[uint(value[i + 12] & 0x0f)];\n    }\n    return string(str);\n    }\n    \n    function uint2str(uint i) internal pure returns (string){\n    if (i == 0) return \"0\";\n    uint j = i;\n    uint length;\n    while (j != 0){\n        length++;\n        j /= 10;\n    }\n    bytes memory bstr = new bytes(length);\n    uint k = length - 1;\n    while (i != 0){\n        bstr[k--] = byte(48 + i % 10);\n        i /= 10;\n    }\n    return string(bstr);\n    }\n\n    function supportProject(address addr) payable public returns (bool success) {\n        if (msg.value <= 0) {\n            revert(\"value less\");\n        }\n       \n        if (!projects[addr].initialized) {\n            revert(\"Not initialized\");\n        }\n        if (projects[addr].goal >= projects[addr].funds + msg.value) {\n            projects[addr].funds += msg.value;\n            contributors.push(Contribution(toString(msg.sender),toString(addr),msg.value));\n            emit ProjectSupported(addr, msg.value);\n            return true;\n        }\n        revert(\"Errrooooooooooooooooooor\");\n        \n    }\n\n\n    function getProjectInfo(address addr) public view returns (string memory , string memory ,uint , uint ,string memory,address) {\n        Project storage project = projects[addr];\n        if (!project.initialized) {\n            revert(\"Shits not initialised\");\n        }\n        return (project.name, project.url, project.goal, project.funds, project.creator,project.addr);\n    }\n    \n    function compareStrings(string memory a,string memory b) public pure returns(bool)\n    {\n        return (keccak256(abi.encodePacked((a))) == keccak256(abi.encodePacked((b))) );\n    }\n    \n    function getProjectByUser(string memory username) public view returns (address[] memory)\n    {\n       address[] memory creatorprojects = new address[](5);\n       uint j = 0;\n       for(uint i = 0; i < projectAddresses.length ; i++)\n       {\n           if(compareStrings(projects[projectAddresses[i]].creator,username))\n           {\n               creatorprojects[j++] = (projectAddresses[i]);\n           }\n       }\n       return creatorprojects;\n    }\n\n    function fundsCollectedByUser(string memory username) public view returns(uint)\n    {\n        uint funds = 0;\n        for(uint i = 0 ; i < projectAddresses.length ; i++)\n        {\n            if(compareStrings(projects[projectAddresses[i]].creator,username))\n           {\n               funds = funds + projects[projectAddresses[i]].funds;\n           }\n        }\n        return funds;\n    }\n\n    function getContributors(string memory projaddr) public view returns (string[] memory)\n    {\n        string[] memory projectcontrib = new string[](10);\n        uint j = 0;\n        for(uint i = 0 ; i < contributors.length ; i++)\n        {\n            if(compareStrings(projaddr, contributors[i].to))\n            {\n                projectcontrib[j] = string(abi.encodePacked(contributors[i].from,'-', uint2str(contributors[i].amount)));\n                j = j+1;\n            }\n\n        }\n        \n        return projectcontrib;\n    }\n}",
  "sourcePath": "/home/akshay/projects/NewDonorHub/contracts/FundingHub.sol",
  "compiler": {
    "name": "solc",
    "version": "0.4.25+commit.59dbf8f1.Emscripten.clang"
  },
  "schemaVersion": "2.0.2",
  "updatedAt": "2019-06-13T07:17:23.212Z"
}