{
  "contractName": "Organisation",
  "abi": [
    {
      "inputs": [],
      "payable": false,
      "stateMutability": "nonpayable",
      "type": "constructor"
    },
    {
      "constant": true,
      "inputs": [
        {
          "name": "username",
          "type": "bytes16"
        }
      ],
      "name": "usernameTaken",
      "outputs": [
        {
          "name": "takenIndeed",
          "type": "bool"
        }
      ],
      "payable": false,
      "stateMutability": "view",
      "type": "function"
    },
    {
      "constant": false,
      "inputs": [
        {
          "name": "username",
          "type": "bytes16"
        },
        {
          "name": "ipfsHash",
          "type": "bytes"
        }
      ],
      "name": "createOrganisation",
      "outputs": [
        {
          "name": "success",
          "type": "bool"
        }
      ],
      "payable": false,
      "stateMutability": "nonpayable",
      "type": "function"
    },
    {
      "constant": true,
      "inputs": [],
      "name": "getUserCount",
      "outputs": [
        {
          "name": "count",
          "type": "uint256"
        }
      ],
      "payable": false,
      "stateMutability": "view",
      "type": "function"
    },
    {
      "constant": true,
      "inputs": [
        {
          "name": "index",
          "type": "uint256"
        }
      ],
      "name": "getUsernameByIndex",
      "outputs": [
        {
          "name": "username",
          "type": "bytes16"
        }
      ],
      "payable": false,
      "stateMutability": "view",
      "type": "function"
    },
    {
      "constant": true,
      "inputs": [
        {
          "name": "index",
          "type": "uint256"
        }
      ],
      "name": "getIpfsHashByIndex",
      "outputs": [
        {
          "name": "ipfsHash",
          "type": "bytes"
        }
      ],
      "payable": false,
      "stateMutability": "view",
      "type": "function"
    }
  ],
  "bytecode": "0x608060405234801561001057600080fd5b50600180600181540180825580915050906001820390600052602060002090600291828204019190066010027f746573742d6f7267000000000000000000000000000000000000000000000000909190916101000a8154816fffffffffffffffffffffffffffffffff0219169083700100000000000000000000000000000000900402179055505060028060018154018082558091505090600182039060005260206000200160006040805190810160405280600d81526020017f6e6f742d617661696c61626c65000000000000000000000000000000000000008152509091909150908051906020019061010692919061010d565b50506101b2565b828054600181600116156101000203166002900490600052602060002090601f016020900481019282601f1061014e57805160ff191683800117855561017c565b8280016001018555821561017c579182015b8281111561017b578251825591602001919060010190610160565b5b509050610189919061018d565b5090565b6101af91905b808211156101ab576000816000905550600101610193565b5090565b90565b6105f6806101c16000396000f30060806040526004361061006d576000357c0100000000000000000000000000000000000000000000000000000000900463ffffffff1680630bac9fe71461007257806316b7addf146100d957806329f78d88146101315780634e421e4f146101d7578063b5cb15f714610275575b600080fd5b34801561007e57600080fd5b5061009d600480360381019080803590602001909291905050506102a0565b60405180826fffffffffffffffffffffffffffffffff19166fffffffffffffffffffffffffffffffff1916815260200191505060405180910390f35b3480156100e557600080fd5b5061011760048036038101908080356fffffffffffffffffffffffffffffffff191690602001909291905050506102fe565b604051808215151515815260200191505060405180910390f35b34801561013d57600080fd5b5061015c6004803603810190808035906020019092919050505061037f565b6040518080602001828103825283818151815260200191508051906020019080838360005b8381101561019c578082015181840152602081019050610181565b50505050905090810190601f1680156101c95780820380516001836020036101000a031916815260200191505b509250505060405180910390f35b3480156101e357600080fd5b5061025b60048036038101908080356fffffffffffffffffffffffffffffffff19169060200190929190803590602001908201803590602001908080601f016020809104026020016040519081016040528093929190818152602001838380828437820191505050505050919291929050505061044d565b604051808215151515815260200191505060405180910390f35b34801561028157600080fd5b5061028a610518565b6040518082815260200191505060405180910390f35b6000600180549050821015156102b557600080fd5b6001828154811015156102c457fe5b90600052602060002090600291828204019190066010029054906101000a9004700100000000000000000000000000000000029050919050565b600080600080846fffffffffffffffffffffffffffffffff19166fffffffffffffffffffffffffffffffff1916815260200190815260200160002054118061037857507f746573742d6f7267000000000000000000000000000000000000000000000000826fffffffffffffffffffffffffffffffff1916145b9050919050565b60606001805490508210151561039457600080fd5b6002828154811015156103a357fe5b906000526020600020018054600181600116156101000203166002900480601f0160208091040260200160405190810160405280929190818152602001828054600181600116156101000203166002900480156104415780601f1061041657610100808354040283529160200191610441565b820191906000526020600020905b81548152906001019060200180831161042457829003601f168201915b50505050509050919050565b6000610458836102fe565b15151561046457600080fd5b600183908060018154018082558091505090600182039060005260206000209060029182820401919006601002909192909190916101000a8154816fffffffffffffffffffffffffffffffff02191690837001000000000000000000000000000000009004021790555050600282908060018154018082558091505090600182039060005260206000200160009091929091909150908051906020019061050c929190610525565b50506001905092915050565b6000600180549050905090565b828054600181600116156101000203166002900490600052602060002090601f016020900481019282601f1061056657805160ff1916838001178555610594565b82800160010185558215610594579182015b82811115610593578251825591602001919060010190610578565b5b5090506105a191906105a5565b5090565b6105c791905b808211156105c35760008160009055506001016105ab565b5090565b905600a165627a7a72305820da4be7d547199cd81b8e3639eba856579bf76e27c63eab515d1972a06300ab050029",
  "source": "pragma solidity >=0.4.19 <0.6.0;\n\n\ncontract Organisation {\n\n \n mapping(bytes16 => uint) private usernameToIndex;\n bytes16[] private usernames;\n bytes[] private ipfsHashes;\n\n constructor() public {\n    // mappings are virtually initialized to zero values so we need to \"waste\" the first element of the arrays\n    // instead of wasting it we use it to create a user for the contract itself\n\n    usernames.push('test-org');\n    ipfsHashes.push('not-available');\n}\n\n function usernameTaken(bytes16 username) public view returns(bool takenIndeed)\n  {\n    return (usernameToIndex[username] > 0 || username == 'test-org');\n  }\n\n  function createOrganisation(bytes16 username, bytes memory ipfsHash) public returns(bool success)\n  {\n    \n    require(!usernameTaken(username));\n    usernames.push(username);\n    ipfsHashes.push(ipfsHash);\n    return true;\n  }\n\n  function getUserCount() public view returns(uint count)\n  {\n    return usernames.length;\n  }\n  function getUsernameByIndex(uint index) public view returns(bytes16 username)\n  {\n    require(index < usernames.length);\n    return usernames[index];\n  }\n\n  function getIpfsHashByIndex(uint index) public view returns(bytes memory ipfsHash)\n  {\n    require(index < usernames.length);\n    return ipfsHashes[index];\n  }\n\n}",
  "sourcePath": "/home/akshay/projects/NewDonorHub/contracts/Organisation.sol",
  "compiler": {
    "name": "solc",
    "version": "0.4.25+commit.59dbf8f1.Emscripten.clang"
  },
  "schemaVersion": "2.0.2",
  "updatedAt": "2019-06-13T07:17:23.196Z"
}