{
  "contractName": "Project",
  "abi": [
    {
      "constant": true,
      "inputs": [
        {
          "name": "",
          "type": "uint256"
        }
      ],
      "name": "contributions",
      "outputs": [
        {
          "name": "amount",
          "type": "uint256"
        },
        {
          "name": "contributor",
          "type": "address"
        }
      ],
      "payable": false,
      "stateMutability": "view",
      "type": "function"
    },
    {
      "constant": true,
      "inputs": [
        {
          "name": "",
          "type": "address"
        }
      ],
      "name": "contributors",
      "outputs": [
        {
          "name": "",
          "type": "uint256"
        }
      ],
      "payable": false,
      "stateMutability": "view",
      "type": "function"
    },
    {
      "constant": true,
      "inputs": [],
      "name": "contributionsCount",
      "outputs": [
        {
          "name": "",
          "type": "uint256"
        }
      ],
      "payable": false,
      "stateMutability": "view",
      "type": "function"
    },
    {
      "constant": true,
      "inputs": [],
      "name": "contributorsCount",
      "outputs": [
        {
          "name": "",
          "type": "uint256"
        }
      ],
      "payable": false,
      "stateMutability": "view",
      "type": "function"
    },
    {
      "constant": true,
      "inputs": [],
      "name": "fundingHub",
      "outputs": [
        {
          "name": "",
          "type": "address"
        }
      ],
      "payable": false,
      "stateMutability": "view",
      "type": "function"
    },
    {
      "constant": true,
      "inputs": [],
      "name": "properties",
      "outputs": [
        {
          "name": "goal",
          "type": "uint256"
        },
        {
          "name": "deadline",
          "type": "uint256"
        },
        {
          "name": "title",
          "type": "string"
        },
        {
          "name": "creator",
          "type": "address"
        }
      ],
      "payable": false,
      "stateMutability": "view",
      "type": "function"
    },
    {
      "constant": true,
      "inputs": [],
      "name": "totalFunding",
      "outputs": [
        {
          "name": "",
          "type": "uint256"
        }
      ],
      "payable": false,
      "stateMutability": "view",
      "type": "function"
    },
    {
      "inputs": [
        {
          "name": "_fundingGoal",
          "type": "uint256"
        },
        {
          "name": "_deadline",
          "type": "uint256"
        },
        {
          "name": "_title",
          "type": "string"
        },
        {
          "name": "_creator",
          "type": "address"
        }
      ],
      "payable": false,
      "stateMutability": "nonpayable",
      "type": "constructor"
    },
    {
      "payable": false,
      "stateMutability": "nonpayable",
      "type": "fallback"
    },
    {
      "anonymous": false,
      "inputs": [
        {
          "indexed": false,
          "name": "projectAddress",
          "type": "address"
        },
        {
          "indexed": false,
          "name": "contributor",
          "type": "address"
        },
        {
          "indexed": false,
          "name": "amount",
          "type": "uint256"
        }
      ],
      "name": "LogContributionReceived",
      "type": "event"
    },
    {
      "anonymous": false,
      "inputs": [
        {
          "indexed": false,
          "name": "projectAddress",
          "type": "address"
        },
        {
          "indexed": false,
          "name": "owner",
          "type": "address"
        },
        {
          "indexed": false,
          "name": "totalPayout",
          "type": "uint256"
        }
      ],
      "name": "LogPayoutInitiated",
      "type": "event"
    },
    {
      "anonymous": false,
      "inputs": [
        {
          "indexed": false,
          "name": "projectAddress",
          "type": "address"
        },
        {
          "indexed": false,
          "name": "contributor",
          "type": "address"
        },
        {
          "indexed": false,
          "name": "refundAmount",
          "type": "uint256"
        }
      ],
      "name": "LogRefundIssued",
      "type": "event"
    },
    {
      "anonymous": false,
      "inputs": [
        {
          "indexed": false,
          "name": "projectAddress",
          "type": "address"
        },
        {
          "indexed": false,
          "name": "totalFunding",
          "type": "uint256"
        },
        {
          "indexed": false,
          "name": "totalContributions",
          "type": "uint256"
        }
      ],
      "name": "LogFundingGoalReached",
      "type": "event"
    },
    {
      "anonymous": false,
      "inputs": [
        {
          "indexed": false,
          "name": "projectAddress",
          "type": "address"
        },
        {
          "indexed": false,
          "name": "totalFunding",
          "type": "uint256"
        },
        {
          "indexed": false,
          "name": "totalContributions",
          "type": "uint256"
        }
      ],
      "name": "LogFundingFailed",
      "type": "event"
    },
    {
      "anonymous": false,
      "inputs": [
        {
          "indexed": false,
          "name": "message",
          "type": "string"
        }
      ],
      "name": "LogFailure",
      "type": "event"
    },
    {
      "constant": true,
      "inputs": [],
      "name": "getProject",
      "outputs": [
        {
          "name": "",
          "type": "string"
        },
        {
          "name": "",
          "type": "uint256"
        },
        {
          "name": "",
          "type": "uint256"
        },
        {
          "name": "",
          "type": "address"
        },
        {
          "name": "",
          "type": "uint256"
        },
        {
          "name": "",
          "type": "uint256"
        },
        {
          "name": "",
          "type": "uint256"
        },
        {
          "name": "",
          "type": "address"
        },
        {
          "name": "",
          "type": "address"
        }
      ],
      "payable": false,
      "stateMutability": "view",
      "type": "function"
    },
    {
      "constant": true,
      "inputs": [
        {
          "name": "_id",
          "type": "uint256"
        }
      ],
      "name": "getContribution",
      "outputs": [
        {
          "name": "",
          "type": "uint256"
        },
        {
          "name": "",
          "type": "address"
        }
      ],
      "payable": false,
      "stateMutability": "view",
      "type": "function"
    },
    {
      "constant": false,
      "inputs": [
        {
          "name": "_contributor",
          "type": "address"
        }
      ],
      "name": "fund",
      "outputs": [
        {
          "name": "successful",
          "type": "bool"
        }
      ],
      "payable": true,
      "stateMutability": "payable",
      "type": "function"
    },
    {
      "constant": false,
      "inputs": [],
      "name": "payout",
      "outputs": [
        {
          "name": "successful",
          "type": "bool"
        }
      ],
      "payable": true,
      "stateMutability": "payable",
      "type": "function"
    },
    {
      "constant": false,
      "inputs": [],
      "name": "refund",
      "outputs": [
        {
          "name": "successful",
          "type": "bool"
        }
      ],
      "payable": true,
      "stateMutability": "payable",
      "type": "function"
    },
    {
      "constant": false,
      "inputs": [],
      "name": "kill",
      "outputs": [],
      "payable": false,
      "stateMutability": "nonpayable",
      "type": "function"
    }
  ],
  "bytecode": "0x60806040523480156200001157600080fd5b50604051620019a2380380620019a2833981018060405281019080805190602001909291908051906020019092919080518201929190602001805190602001909291905050506000841115156200015e577fa2db52a45d71264723caeac03c235d51bb30cff5e1ac71c97a5842ec94fbb6af60405180806020018281038252602b8152602001807f50726f6a6563742066756e64696e6720676f616c206d7573742062652067726581526020017f61746572207468616e203000000000000000000000000000000000000000000081525060400191505060405180910390a16040517f08c379a00000000000000000000000000000000000000000000000000000000081526004018080602001828103825260098152602001807f676f616c2073686974000000000000000000000000000000000000000000000081525060200191505060405180910390fd5b824310151562000264577fa2db52a45d71264723caeac03c235d51bb30cff5e1ac71c97a5842ec94fbb6af6040518080602001828103825260378152602001807f50726f6a65637420646561646c696e65206d757374206265206772656174657281526020017f207468616e207468652063757272656e7420626c6f636b00000000000000000081525060400191505060405180910390a16040517f08c379a000000000000000000000000000000000000000000000000000000000815260040180806020018281038252600a8152602001807f626c6f636b20736869740000000000000000000000000000000000000000000081525060200191505060405180910390fd5b600073ffffffffffffffffffffffffffffffffffffffff168173ffffffffffffffffffffffffffffffffffffffff16141562000396577fa2db52a45d71264723caeac03c235d51bb30cff5e1ac71c97a5842ec94fbb6af60405180806020018281038252602c8152602001807f50726f6a656374206d75737420696e636c75646520612076616c69642063726581526020017f61746f722061646472657373000000000000000000000000000000000000000081525060400191505060405180910390a16040517f08c379a000000000000000000000000000000000000000000000000000000000815260040180806020018281038252600c8152602001807f63726561746f722073686974000000000000000000000000000000000000000081525060200191505060405180910390fd5b336000806101000a81548173ffffffffffffffffffffffffffffffffffffffff021916908373ffffffffffffffffffffffffffffffffffffffff1602179055506080604051908101604052808581526020018481526020018381526020018273ffffffffffffffffffffffffffffffffffffffff1681525060066000820151816000015560208201518160010155604082015181600201908051906020019062000442929190620004af565b5060608201518160030160006101000a81548173ffffffffffffffffffffffffffffffffffffffff021916908373ffffffffffffffffffffffffffffffffffffffff160217905550905050600060038190555060006004819055506000600581905550505050506200055e565b828054600181600116156101000203166002900490600052602060002090601f016020900481019282601f10620004f257805160ff191683800117855562000523565b8280016001018555821562000523579182015b828111156200052257825182559160200191906001019062000505565b5b50905062000532919062000536565b5090565b6200055b91905b80821115620005575760008160009055506001016200053d565b5090565b90565b611434806200056e6000396000f3006080604052600436106100c5576000357c0100000000000000000000000000000000000000000000000000000000900463ffffffff1680631cee0700146100d75780631f6d49421461014b57806323024408146101a257806338658175146101f057806341c0e1b51461021b578063590e1ae31461023257806363bd1d4a146102545780636e57b700146102765780637569b3d7146103c2578063cef42254146103ed578063f9b8057f14610461578063fcd802b1146104b8578063fe47a8a714610589575b3480156100d157600080fd5b50600080fd5b3480156100e357600080fd5b50610102600480360381019080803590602001909291905050506105b4565b604051808381526020018273ffffffffffffffffffffffffffffffffffffffff1673ffffffffffffffffffffffffffffffffffffffff1681526020019250505060405180910390f35b34801561015757600080fd5b5061018c600480360381019080803573ffffffffffffffffffffffffffffffffffffffff1690602001909291905050506105f8565b6040518082815260200191505060405180910390f35b6101d6600480360381019080803573ffffffffffffffffffffffffffffffffffffffff169060200190929190505050610610565b604051808215151515815260200191505060405180910390f35b3480156101fc57600080fd5b50610205610cee565b6040518082815260200191505060405180910390f35b34801561022757600080fd5b50610230610cf4565b005b61023a610d89565b604051808215151515815260200191505060405180910390f35b61025c6110ed565b604051808215151515815260200191505060405180910390f35b34801561028257600080fd5b5061028b611189565b60405180806020018a81526020018981526020018873ffffffffffffffffffffffffffffffffffffffff1673ffffffffffffffffffffffffffffffffffffffff1681526020018781526020018681526020018581526020018473ffffffffffffffffffffffffffffffffffffffff1673ffffffffffffffffffffffffffffffffffffffff1681526020018373ffffffffffffffffffffffffffffffffffffffff1673ffffffffffffffffffffffffffffffffffffffff16815260200182810382528b818151815260200191508051906020019080838360005b8381101561037f578082015181840152602081019050610364565b50505050905090810190601f1680156103ac5780820380516001836020036101000a031916815260200191505b509a505050505050505050505060405180910390f35b3480156103ce57600080fd5b506103d76112b3565b6040518082815260200191505060405180910390f35b3480156103f957600080fd5b50610418600480360381019080803590602001909291905050506112b9565b604051808381526020018273ffffffffffffffffffffffffffffffffffffffff1673ffffffffffffffffffffffffffffffffffffffff1681526020019250505060405180910390f35b34801561046d57600080fd5b50610476611307565b604051808273ffffffffffffffffffffffffffffffffffffffff1673ffffffffffffffffffffffffffffffffffffffff16815260200191505060405180910390f35b3480156104c457600080fd5b506104cd61132c565b60405180858152602001848152602001806020018373ffffffffffffffffffffffffffffffffffffffff1673ffffffffffffffffffffffffffffffffffffffff168152602001828103825284818151815260200191508051906020019080838360005b8381101561054b578082015181840152602081019050610530565b50505050905090810190601f1680156105785780820380516001836020036101000a031916815260200191505b509550505050505060405180910390f35b34801561059557600080fd5b5061059e611402565b6040518082815260200191505060405180910390f35b60026020528060005260406000206000915090508060000154908060010160009054906101000a900473ffffffffffffffffffffffffffffffffffffffff16905082565b60016020528060005260406000206000915090505481565b600080600080341115156106b1577fa2db52a45d71264723caeac03c235d51bb30cff5e1ac71c97a5842ec94fbb6af6040518080602001828103825260308152602001807f46756e64696e6720636f6e747269627574696f6e73206d75737420626520677281526020017f6561746572207468616e2030207765690000000000000000000000000000000081525060400191505060405180910390a1600080fd5b6000809054906101000a900473ffffffffffffffffffffffffffffffffffffffff1673ffffffffffffffffffffffffffffffffffffffff163373ffffffffffffffffffffffffffffffffffffffff161415156107c0577fa2db52a45d71264723caeac03c235d51bb30cff5e1ac71c97a5842ec94fbb6af6040518080602001828103825260428152602001807f46756e64696e6720636f6e747269627574696f6e732063616e206f6e6c79206281526020017f65206d616465207468726f7567682046756e64696e6748756220636f6e74726181526020017f637400000000000000000000000000000000000000000000000000000000000081525060600191505060405180910390a1600080fd5b60066001015443111561091b577f06a029cfeb9ba6076c9c728f3ac5eb2de5535c866f145b0679a2f5fb2afcae6130600354600454604051808473ffffffffffffffffffffffffffffffffffffffff1673ffffffffffffffffffffffffffffffffffffffff168152602001838152602001828152602001935050505060405180910390a18373ffffffffffffffffffffffffffffffffffffffff166108fc349081150290604051600060405180830381858888f193505050501515610912577fa2db52a45d71264723caeac03c235d51bb30cff5e1ac71c97a5842ec94fbb6af60405180806020018281038252603b8152602001807f50726f6a65637420646561646c696e6520686173207061737365642c2070726f81526020017f626c656d2072657475726e696e6720636f6e747269627574696f6e000000000081525060400191505060405180910390a1600080fd5b60009250610ce7565b600660000154600354101515610a82577ff2f86ff1ec83177c1a8bfc8a746ed87b25fb731cd937a710b77139e477d2ab4230600354600454604051808473ffffffffffffffffffffffffffffffffffffffff1673ffffffffffffffffffffffffffffffffffffffff168152602001838152602001828152602001935050505060405180910390a18373ffffffffffffffffffffffffffffffffffffffff166108fc349081150290604051600060405180830381858888f193505050501515610a70577fa2db52a45d71264723caeac03c235d51bb30cff5e1ac71c97a5842ec94fbb6af60405180806020018281038252603b8152602001807f50726f6a65637420646561646c696e6520686173207061737365642c2070726f81526020017f626c656d2072657475726e696e6720636f6e747269627574696f6e000000000081525060400191505060405180910390a1600080fd5b610a786110ed565b5060009250610ce7565b600160008573ffffffffffffffffffffffffffffffffffffffff1673ffffffffffffffffffffffffffffffffffffffff1681526020019081526020016000205491506002600060045481526020019081526020016000209050838160010160006101000a81548173ffffffffffffffffffffffffffffffffffffffff021916908373ffffffffffffffffffffffffffffffffffffffff16021790555034816000018190555034600160008673ffffffffffffffffffffffffffffffffffffffff1673ffffffffffffffffffffffffffffffffffffffff16815260200190815260200160002060008282540192505081905550346003600082825401925050819055506004600081548092919060010191905055506000821415610bb2576005600081548092919060010191905055505b7f1613ab8aabab6179e17fac6982185658b18ef4166931650cf8a2d5ed1a987aeb308534604051808473ffffffffffffffffffffffffffffffffffffffff1673ffffffffffffffffffffffffffffffffffffffff1681526020018373ffffffffffffffffffffffffffffffffffffffff1673ffffffffffffffffffffffffffffffffffffffff168152602001828152602001935050505060405180910390a1600660000154600354101515610ce2577ff2f86ff1ec83177c1a8bfc8a746ed87b25fb731cd937a710b77139e477d2ab4230600354600454604051808473ffffffffffffffffffffffffffffffffffffffff1673ffffffffffffffffffffffffffffffffffffffff168152602001838152602001828152602001935050505060405180910390a1610ce06110ed565b505b600192505b5050919050565b60045481565b3373ffffffffffffffffffffffffffffffffffffffff166000809054906101000a900473ffffffffffffffffffffffffffffffffffffffff1673ffffffffffffffffffffffffffffffffffffffff16141515610d4f57600080fd5b6000809054906101000a900473ffffffffffffffffffffffffffffffffffffffff1673ffffffffffffffffffffffffffffffffffffffff16ff5b600080600660010154431015610e2c577fa2db52a45d71264723caeac03c235d51bb30cff5e1ac71c97a5842ec94fbb6af6040518080602001828103825260338152602001807f526566756e64206973206f6e6c7920706f737369626c652069662070726f6a6581526020017f6374206973207061737420646561646c696e650000000000000000000000000081525060400191505060405180910390a1600080fd5b600660000154600354101515610ecf577fa2db52a45d71264723caeac03c235d51bb30cff5e1ac71c97a5842ec94fbb6af60405180806020018281038252602e8152602001807f526566756e64206973206e6f7420706f737369626c652069662070726f6a656381526020017f7420686173206d657420676f616c00000000000000000000000000000000000081525060400191505060405180910390a1600080fd5b600160003373ffffffffffffffffffffffffffffffffffffffff1673ffffffffffffffffffffffffffffffffffffffff1681526020019081526020016000205490506000600160003373ffffffffffffffffffffffffffffffffffffffff1673ffffffffffffffffffffffffffffffffffffffff168152602001908152602001600020819055503373ffffffffffffffffffffffffffffffffffffffff166108fc829081150290604051600060405180830381858888f1935050505015611038577f5912b7ad61865e7a6d5dcaa41e58e9563c7e286fc42999b67e1773e6b76e322d303383604051808473ffffffffffffffffffffffffffffffffffffffff1673ffffffffffffffffffffffffffffffffffffffff1681526020018373ffffffffffffffffffffffffffffffffffffffff1673ffffffffffffffffffffffffffffffffffffffff168152602001828152602001935050505060405180910390a1600191506110e9565b80600160003373ffffffffffffffffffffffffffffffffffffffff1673ffffffffffffffffffffffffffffffffffffffff168152602001908152602001600020819055507fa2db52a45d71264723caeac03c235d51bb30cff5e1ac71c97a5842ec94fbb6af6040518080602001828103825260208152602001807f526566756e6420646964206e6f742073656e64207375636365737366756c6c7981525060200191505060405180910390a1600091505b5090565b600080600660000154600354101561110457600080fd5b60035490506000600381905550600660030160009054906101000a900473ffffffffffffffffffffffffffffffffffffffff1673ffffffffffffffffffffffffffffffffffffffff166108fc829081150290604051600060405180830381858888f19350505050156111795760019150611185565b80600381905550600091505b5090565b60606000806000806000806000806006600201600660000154600660010154600660030160009054906101000a900473ffffffffffffffffffffffffffffffffffffffff166003546004546005546000809054906101000a900473ffffffffffffffffffffffffffffffffffffffff1630888054600181600116156101000203166002900480601f01602080910402602001604051908101604052809291908181526020018280546001816001161561010002031660029004801561128f5780601f106112645761010080835404028352916020019161128f565b820191906000526020600020905b81548152906001019060200180831161127257829003601f168201915b50505050509850985098509850985098509850985098509850909192939495969798565b60055481565b600080600060026000858152602001908152602001600020905080600001548160010160009054906101000a900473ffffffffffffffffffffffffffffffffffffffff169250925050915091565b6000809054906101000a900473ffffffffffffffffffffffffffffffffffffffff1681565b6006806000015490806001015490806002018054600181600116156101000203166002900480601f0160208091040260200160405190810160405280929190818152602001828054600181600116156101000203166002900480156113d25780601f106113a7576101008083540402835291602001916113d2565b820191906000526020600020905b8154815290600101906020018083116113b557829003601f168201915b5050505050908060030160009054906101000a900473ffffffffffffffffffffffffffffffffffffffff16905084565b600354815600a165627a7a72305820fe3b287ab9e0ff9b4c160f90d99bc7f81f2433c056d31c51a176f60b592927170029",
  "source": "pragma solidity >=0.4.21 <0.6.0;\n\n\ncontract Project {\n\n    struct Properties {\n        uint goal;\n        uint deadline;\n        string title;\n        address creator;\n    }\n\n    struct Contribution {\n        uint amount;\n        address contributor;\n    }\n\n    address public fundingHub;\n\n    mapping (address => uint) public contributors;\n    mapping (uint => Contribution) public contributions;\n\n    uint public totalFunding;\n    uint public contributionsCount;\n    uint public contributorsCount;\n\n    Properties public properties;\n\n    event LogContributionReceived(address projectAddress, address contributor, uint amount);\n    event LogPayoutInitiated(address projectAddress, address owner, uint totalPayout);\n    event LogRefundIssued(address projectAddress, address contributor, uint refundAmount);\n    event LogFundingGoalReached(address projectAddress, uint totalFunding, uint totalContributions);\n    event LogFundingFailed(address projectAddress, uint totalFunding, uint totalContributions);\n\n    event LogFailure(string message);\n\n    modifier onlyFundingHub {\n        if (fundingHub != msg.sender) revert();\n        _;\n    }\n\n    modifier onlyFunded {\n        if (totalFunding < properties.goal) {\n            revert();\n        }\n        _;\n    }\n\n    constructor(uint _fundingGoal, uint _deadline, string memory _title, address _creator) public {\n\n        // Check to see the funding goal is greater than 0\n        if (_fundingGoal <= 0) {\n            emit LogFailure(\"Project funding goal must be greater than 0\");\n            revert(\"goal shit\");\n        }\n\n        // Check to see the deadline is in the future\n        if (block.number >= _deadline) {\n            emit LogFailure(\"Project deadline must be greater than the current block\");\n            revert(\"block shit\");\n        }\n\n        // Check to see that a creator (payout) address is valid\n        if (_creator == address(0)) {\n            emit LogFailure(\"Project must include a valid creator address\");\n            revert(\"creator shit\");\n        }\n\n        fundingHub = msg.sender;\n\n        // initialize properties struct\n        properties = Properties({\n            goal: _fundingGoal,\n            deadline: _deadline,\n            title: _title,\n            creator: _creator\n        });\n\n        totalFunding = 0;\n        contributionsCount = 0;\n        contributorsCount = 0;\n    }\n\n    /**\n    * Project values are indexed in return value:\n    * [0] -> Project.properties.title\n    * [1] -> Project.properties.goal\n    * [2] -> Project.properties.deadline\n    * [3] -> Project.properties.creator\n    * [4] -> Project.totalFunding\n    * [5] -> Project.contributionsCount\n    * [6] -> Project.contributorsCount\n    * [7] -> Project.fundingHub\n    * [8] -> Project (address)\n    */\n    function getProject() public view returns (string memory, uint, uint, address, uint, uint, uint, address, address) {\n        return (properties.title,\n                properties.goal,\n                properties.deadline,\n                properties.creator,\n                totalFunding,\n                contributionsCount,\n                contributorsCount,\n                fundingHub,\n                address(this));\n    }\n\n    /**\n    * Retrieve indiviual contribution information\n    * [0] -> Contribution.amount\n    * [1] -> Contribution.contributor\n    */\n    function getContribution(uint _id) public view returns (uint, address) {\n        Contribution storage c = contributions[_id];\n        return (c.amount, c.contributor);\n    }\n\n    /**\n    * This is the function called when the FundingHub receives a contribution. \n    * If the contribution was sent after the deadline of the project passed, \n    * or the full amount has been reached, the function must return the value \n    * to the originator of the transaction. \n    * If the full funding amount has been reached, the function must call payout.\n    * [0] -> contribution was made\n    */\n    function fund(address _contributor) public payable returns (bool successful) {\n\n        // Check amount is greater than 0\n        if (msg.value <= 0) {\n            emit LogFailure(\"Funding contributions must be greater than 0 wei\");\n            revert();\n        }\n\n        // Check funding only comes thru fundingHub\n        if (msg.sender != fundingHub) {\n            emit LogFailure(\"Funding contributions can only be made through FundingHub contract\");\n            revert();\n        }\n\n        // 1. Check that the project dealine has not passed\n        if (block.number > properties.deadline) {\n            emit LogFundingFailed(address(this), totalFunding, contributionsCount);\n            if (!_contributor.send(msg.value)) {\n                emit LogFailure(\"Project deadline has passed, problem returning contribution\");\n                revert();\n            }\n            return false;\n        }\n\n        // 2. Check that funding goal has not already been met\n        if (totalFunding >= properties.goal) {\n            emit LogFundingGoalReached(address(this), totalFunding, contributionsCount);\n            if (!_contributor.send(msg.value)) {\n                emit LogFailure(\"Project deadline has passed, problem returning contribution\");\n                revert();\n            }\n            payout();\n            return false;\n        }\n\n        // determine if this is a new contributor\n        uint prevContributionBalance = contributors[_contributor];\n\n        // Add contribution to contributions map\n        Contribution storage c = contributions[contributionsCount];\n        c.contributor = _contributor;\n        c.amount = msg.value;\n\n        // Update contributor's balance\n        contributors[_contributor] += msg.value;\n\n        totalFunding += msg.value;\n        contributionsCount++;\n\n        // Check if contributor is new and if so increase count\n        if (prevContributionBalance == 0) {\n            contributorsCount++;\n        }\n\n        emit LogContributionReceived(this, _contributor, msg.value);\n\n        // Check again to see whether the last contribution met the fundingGoal\n        if (totalFunding >= properties.goal) {\n            emit LogFundingGoalReached(address(this), totalFunding, contributionsCount);\n            payout();\n        }\n\n        return true;\n    }\n\n    /**\n    * If funding goal has been met, transfer fund to project creator\n    * [0] -> payout was successful\n    */\n    function payout() public payable onlyFunded returns (bool successful) {\n        uint amount = totalFunding;\n\n        // prevent re-entrancy\n        totalFunding = 0;\n\n        if (properties.creator.send(amount)) {\n            return true;\n        } else {\n            totalFunding = amount;\n            return false;\n        }\n\n        return true;\n    }\n\n    /**\n    * If the deadline is passed and the goal was not reached, allow contributors to withdraw their contributions.\n    * This is slightly different that the final project requirements, see README for details\n    * [0] -> refund was successful\n    */\n    function refund() public payable returns (bool successful) {\n\n        // Check that the project dealine has passed\n        if (block.number < properties.deadline) {\n            emit LogFailure(\"Refund is only possible if project is past deadline\");\n            revert();\n        }\n\n        // Check that funding goal has not already been met\n        if (totalFunding >= properties.goal) {\n            emit LogFailure(\"Refund is not possible if project has met goal\");\n            revert();\n        }\n\n        uint amount = contributors[msg.sender];\n        \n        //prevent re-entrancy attack\n        contributors[msg.sender] = 0;\n\n        if (msg.sender.send(amount)) {\n            emit LogRefundIssued(address(this), msg.sender, amount);\n            return true;\n        } else {\n            contributors[msg.sender] = amount;\n            emit LogFailure(\"Refund did not send successfully\");\n            return false;\n        }\n        return true;\n    }\n\n    function kill() public onlyFundingHub {\n        selfdestruct(fundingHub);\n    }\n\n    /** \n    * Don't allow Ether to be sent blindly to this contract\n    */\n    function() public {\n        revert();\n    }\n}",
  "sourcePath": "/home/akshay/projects/NewDonorHub/contracts/Project.sol",
  "compiler": {
    "name": "solc",
    "version": "0.4.25+commit.59dbf8f1.Emscripten.clang"
  },
  "schemaVersion": "2.0.2",
  "updatedAt": "2019-05-09T19:09:29.907Z"
}